:10000000A220A200A203A200782CFFCF2006C9BA2A
:10001000BD0001588DF807290F853F0A0A0A0A8595
:100020003EAAA000B907C9F00D0980995007C81071
:10003000F3A9C520A8FCAD61C0100BADF8073A8547
:100040004164406C40002000C8D0F0644DA9088590
:1000500045644464476446208ECAB0DFA90A8545DA
:1000600064446447A9018546208ECAB0CE4C01087D
:100070001890013808FAA004B93D00488810F986A4
:100080003D782CFFCF2006C9BABD0001588DF80776
:10009000290F853FA80A0A0A0A853EAA2032CA907B
:1000A000052000C8B009A53D4828B034203ECADA72
:1000B000A63F9D7804689DF804989D780508689D82
:1000C000F805A00068993D00C8C00590F7BDF80587
:1000D00048BD780548BDF80448BD7804FA7A286020
:1000E00018207CCB80C90000000000000000000048
:1000F00000000000000000000000000000009770F9
:100100009E81C0A9019D83C0A00AA9FF9D80C0BD9A
:1001100081C010FB88D0F3BD83C029FE9D83C0A998
:100120002F8540A9C98541205FC92073C9C901D065
:1001300065A93B8540A9C98541205FC9208AC9C9F5
:1001400001D056A43FB9F805C9AAD04AA9478540AD
:10015000A9C98541205FC92073C9A9538540A9C990
:100160008541205FC92073C9C901F0E0C900D026CC
:10017000A94D8540A9C98541205FC9208AC9C90008
:10018000D014A43FB978042940F048BD83C00910B9
:100190009D83C04CE5C84CFAC8A9478540A9C985CC
:1001A00041205FC9A9598540A9C98541205FC9205F
:1001B00073C9C901F0E3C900D0034CD3C8A9358580
:1001C00040A9C98541205FC92073C9C901F0F6C99A
:1001D00000D027A9418540A9C98541205FC9207366
:1001E000C9C900D015BD83C009809D83C0BD81C031
:1001F00009049D81C018A000900338A027BD83C0CA
:1002000009019D83C09860204170706C655D5B53EF
:10021000642076312E332E30202863293230323656
:1002200020466C6F7269616E20526569747A004075
:1002300000000000954100000000F948000001AAFC
:10024000875000000200FF7700000000FF7A0000E6
:100250000000FF6940000000776900000000FF5ABD
:10026000A000B1409D80C0BD81C010FBC8C00690F9
:10027000F17A60A9FF9D80C0BD81C010FBBD80C028
:1002800030F148A9FF9D80C068602073C9485AA01A
:10029000044C99C9A9FF9D80C0BD81C010FBBD80E1
:1002A000C04888D0EFA43F6899F805689978056838
:1002B00099F804689978047AA9FF9D80C06860DA8B
:1002C0005AA63FA43EA5469DF805A5479D7805A5DD
:1002D0004D9DF8049E7804A9103983C0D011A0095F
:1002E0001EF8053E78053EF8043E780488D0F17A81
:1002F000FA605AA43F9D80C0B978049D80C0B9F8C7
:10030000049D80C0B978059D80C0B9F8059D80C066
:10031000A9FF9D80C02073C97A6048A9403C83C072
:1003200018F00138686048A9203C83C018F00138F3
:10033000686048A9803C83C018D001386860A53E39
:1003400045432970F004A9028002A900854DA54308
:1003500029030A18654D854DA5431002E64DA542B7
:10036000F00CC901F00BC902F00AA90138604C7702
:10037000CA4C8ECA4C0BCBA900201ACA9004A928DB
:10038000D0072026CA9002A92BA2FFA0FF60201A46
:10039000CAB0732032CA90052000C8B06920BFC916
:1003A000BD83C029FE9D83C0A95120F2C9C900D0D8
:1003B00050A9FF9D80C0BD80C0C9FED0F4BD81C0E2
:1003C00009109D81C0A9FF9D80C0A000BD80C09183
:1003D00044C8D0F8E645BD80C09144C8D0F8C645B1
:1003E000BD80C0BD80C0BD80C0BD81C029EF9D81E2
:1003F000C018A9000848BD83C009019D83C06828B2
:100400006038A92780EE38A92880E92026CAB0677D
:1004100020BFC9BD83C029FE9D83C0A95820F2C951
:10042000C900D04EA9FF9D80C0A9FE9D80C0A0003C
:10043000B1449D80C0C8D0F8E645B1449D80C0C895
:10044000D0F8C645A9FF9D80C09D80C09D80C0BDDD
:1004500080C0291FC905D01A18A9000848A9FF9D06
:1004600080C0BD80C0F0F6BD83C009019D83C06817
:10047000286038A92780E438A92B80DFA005B94877
:1004800000488810F9BABD0E0185481869039D0E11
:1004900001BD0F01854969009D0F01A001B148858B
:1004A00042C8B148AAC8B14885498648A901A642B0
:1004B000E00AB01AB248DDF1CCD027A001B148A4BF
:1004C0003F9978068A0AAA20E6CBB002A900AAA022
:1004D0000068994800C8C00690F78AA002A200C927
:1004E0000160A90480E87CFBCC2077CCA43FB978DC
:1004F00006D018A54CF004A9213860A908924AA09A
:1005000007B90ECD914A88D0F81860A64CF016CAEB
:10051000F008CACAF00FA9213860A901924AA8A917
:1005200000914A1860A9E8A63E201ACAB002091034
:100530002026CA90020904924AA001A9FF914AC844
:10054000914AC8A900914AA54CF00CA004B912CD5B
:10055000914AC8C01990F618602077CCA64CF00FCD
:10056000CAF00CCAF006CAF00ACAF003A92138A9D9
:10057000001860A91F3860A002B148854AC8B14878
:10058000854BC8B148854C6020A2CC900160A63E46
:10059000A43F4C8ECA20A2CC900160A63EA43F4C42
:1005A0000BCBB97806F023C909B01F3A854DA002DC
:1005B000B1488544C8B1488545C8B1488546C8B1E9
:1005C000488547C8B148D0061860A9113860A92DE0
:1005D0003860B97806F004A9001860A9113860B92C
:1005E000780618F003A9113860A9013860A92738E6
:1005F0006003030301030101010404E9CB88CC95E6
:10060000CCD2CC59CCDFCCE9CCE9CCEDCCEDCC4094
:10061000000000130000104150504C455D5B5344F6
:1006200020202020202020020000130000000000D5
:1006300000000000000000000000000000000000BA
:1006400000000000000000000000000000000000AA
:10065000000000000000000000000000000000009A
:10066000000000000000000000000000000000008A
:10067000000000000000000000000000000000007A
:10068000000000000000000000000000000000006A
:10069000000000000000000000000000000000005A
:1006A000000000000000000000000000000000004A
:1006B000000000000000000000000000000000003A
:1006C000000000000000000000000000000000002A
:1006D000000000000000000000000000000000001A
:1006E000000000000000000000000000000000000A
:1006F00000000000000000000000000000000000FA
:1007000000000000000000000000000000000000E9
:1007100000000000000000000000000000000000D9
:1007200000000000000000000000000000000000C9
:1007300000000000000000000000000000000000B9
:1007400000000000000000000000000000000000A9
:100750000000000000000000000000000000000099
:100760000000000000000000000000000000000089
:100770000000000000000000000000000000000079
:100780000000000000000000000000000000000069
:100790000000000000000000000000000000000059
:1007A0000000000000000000000000000000000049
:1007B0000000000000000000000000000000000039
:1007C0000000000000000000000000000000000029
:1007D0000000000000000000000000000000000019
:1007E0000000000000000000000000000000000009
:1007F00000000000000000000000000000000000F9
:00000001FF
